:020000040800F2
:10000000B8040020D9010008BB18000849170008EF
:10001000B918000851060008FB1B0008000000008A
:10002000000000000000000000000000DF180008D1
:100030005306000800000000DD180008E118000861
:10004000F3010008F3010008F3010008F3010008C0
:10005000F3010008F3010008F3010008F3010008B0
:10006000F3010008F3010008F3010008F3010008A0
:10007000F3010008F3010008F3010008F301000890
:10008000F3010008F301000821050008F30100084E
:10009000F3010008F3010008F3010008F301000870
:1000A000D1190008F5190008E9190008DD19000840
:1000B000F3010008F3010008F3010008F301000850
:1000C000F3010008F3010008F3010008F301000840
:1000D000F3010008F3010008F3010008F301000830
:1000E000F3010008F3010008F3010008F301000820
:1000F000F3010008F3010008F3010008F301000810
:10010000F3010008F3010008F3010008F3010008FF
:10011000F3010008F3010008F3010008F3010008EF
:10012000F3010008F3010008F3010008F3010008DF
:10013000F30100080000000000000000F3010008C7
:10014000F3010008F3010008F3010008F3010008BF
:10015000F3010008F3010008F3010008F3010008AF
:10016000F3010008F3010008F3010008F30100089F
:10017000F3010008F3010008F3010008000000008B
:1001800000000000F3010008000000000000000073
:10019000F30100080000000000000000F301000867
:1001A000000000000000000000000000F301000853
:1001B000F3010008F3010008F3010008F30100084F
:1001C000F3010008DFF80CD000F098F90048004770
:1001D0001D1C0008B8040020064880470648004758
:1001E000FEE7FEE7FEE7FEE7FEE7FEE7FEE7FEE7E7
:1001F000FEE7FEE77D190008C50100082DE9F05F64
:100200000546002092469B46884606468146402485
:100210001BE0284641464746224600F0CAF85346AE
:100220005A46C01A914110D311461846224600F092
:10023000B1F82D1A67EB01084F4622460120002134
:1002400000F0A8F817EB00094E41201EA4F10104AC
:10025000DFDC484631462A464346BDE8F09F2DE99B
:10026000FE4F81EA030404F0004421F000410094B1
:100270004FF0000B23F0004350EA01045ED052EA35
:1002800003045BD0C3F30A54C1F30A552C44A4F20F
:10029000F3340194A0FB0254C1F3130141F4801123
:1002A000C3F3130343F4801301FB024400FB034E2A
:1002B000840A970A44EA815447EA8357A4FB0768F3
:1002C00002958D0A05FB07854FEA932C04FB0C541D
:1002D0002705029D4FEA065847EA1637B5EB080591
:1002E0006EEB070C870E920E47EA811742EA8312E3
:1002F000A7FB0201B6EB0B0164EB00042B0D43EAF4
:100300000C335E1844EB1C50DA465146E7FB020101
:10031000C5F313044FEA0B3343EA14534FEA043294
:10032000019C43EA0603A4F10C040294009CCDE96D
:1003300000B400F094F803B0BDE8F08F002001464F
:10034000F9E70EB540F2334102910021CDE90011E9
:100350000A460B4600F083F803B000BD01F00043ED
:1003600030B421F0004150EA010206D00A0DA2F596
:100370006072C1F31301002A02DC30BC0020704718
:10038000440F44EAC104C100E01830BC00EBC25085
:1003900000F01FB8202A04DB203A00FA02F1002006
:1003A00070479140C2F1200320FA03F319439040B3
:1003B0007047202A04DB203A21FA02F0002170471E
:1003C00021FA02F3D040C2F12002914008431946BD
:1003D00070470029A8BF7047401C490008BF20F0A3
:1003E0000100704710B4B0FA80FC00FA0CF050EA3B
:1003F000010404BF10BC704749B1CCF1200421FABC
:1004000004F411FA0CF118BF012121430843A3EBB6
:100410000C01CB1D4FEA00614FEA102042BF0020C3
:1004200010BC704700EBC35010440029A4BF10BC9F
:100430007047401C490008BF20F0010010BC704705
:1004400010B5141E73F1000408DA401C41F10001DC
:1004500092185B411A4301D120F0010010BD2DE933
:10046000F04D92469B4611B1B1FA81F202E0B0FA2A
:1004700080F220329046FFF78DFF04460F4640EA97
:100480000A0041EA0B0153465A46084313D011466D
:1004900053EA010019D0C8F140025046FFF789FF26
:1004A00005460E46504659464246FFF773FF08433D
:1004B00005D0012004E020463946BDE8F08D00203B
:1004C000054346EAE0762C4337430A986305E40A7D
:1004D000A0EB08000022FD0A44EA47540A3002D586
:1004E00000200146E9E7010510196941DDE90845E9
:1004F00000196941BDE8F04DA2E70000064C074D28
:1005000006E0E06840F0010394E8070098471034E3
:10051000AC42F6D3FFF75AFEA01D0008C01D00082C
:10052000014800F045B9000034000020454910B5ED
:100530004A6822F440324A604A6843681A434A6073
:1005400001684A6822F480724A6001684A68036957
:1005500042EA03224A6001684A6822F040724A6017
:1005600001684A6883681A434A6001688A6822F40D
:1005700000628A6001688A68C3681A438A60816A77
:100580006FF07062D14201688A6822F070628A60FE
:1005900001688A680CD0836A1A438A6001688A6895
:1005A00022F040528A6001688A68C36A1A4301E0F7
:1005B00022F040528A6001688A6822F002028A6052
:1005C00001688A68836942EA43028A60016A0029F5
:1005D00001684A680FD042F400624A6001684A68C4
:1005E00022F460424A6001684A68174C436A04EB8F
:1005F00043331A4301E022F400624A600168CA6A88
:1006000022F47002CA620168CA6A838B0F4C04EB41
:1006100003531A43CA6201688A6822F400728A602E
:1006200001688A68036B42EA43228A6001688A682B
:1006300022F480628A6001688A68406942EA802008
:10064000886010BD0023014000E0FFFF0000F0FFC4
:10065000FEE770477047000078B50024009490F8DA
:100660003C20012A19D0012280F83C200A68072387
:100670000568092A13D9EE680A3A02EB4202934050
:100680009E43EE600A788B680A3A02EB420293407E
:100690000268D5682B43D36010E0022078BD2E6934
:1006A00002EB420293409E432E610A788B6802EB74
:1006B00042029340026815692B4313614A681F2365
:1006C000072A13D205686E6B521E02EB820293401A
:1006D0009E436E630B790A885B1E92B203EB830321
:1006E0009A4003685D6B2A435A6327E005680D2A28
:1006F00012D22E6BD21F02EB820293409E432E63D6
:100700000B790A88DB1F92B203EB83039A400368DC
:100710001D6B2A431A6311E0EE6A0D3A02EB820266
:1007200093409E43EE620B790A880D3B92B203EB35
:1007300083039A400368DD6A2A43DA62174B05682F
:10074000154A9D4206D10D68122D03D1556845F416
:100750008005556005689D4219D1114D0B68AB426B
:1007600001D0112B13D1536843F40003536009687F
:10077000A9420CD10B490C4A0968B1FBF2F101EB1B
:100780008101490000E0491E00910029FBD180F859
:100790003C40002078BD00000023014000200140C3
:1007A000120000103000002040420F0070477047D8
:1007B00070B50446006801684268C1F34001C2F3A5
:1007C000401251B34AB3216CC90603D4216C41F4E1
:1007D00000712164816811F0405F17D1A169A9B946
:1007E000C16A11F4700F02D0816849050ED44168C6
:1007F00021F020014160206C20F480702064206C86
:10080000C00403D4206C40F0010020642046FFF7B0
:10081000CDFF21686FF0120008602068016842680F
:10082000C1F38001C2F3C01289B382B3216CC9063F
:1008300003D4216C41F400512164816811F4401FFC
:100840001ED1816B11F4401F02D08168490517D475
:100850004168490514D4816811F0405F10D1A16945
:1008600071B9416821F080014160206C20F4805012
:100870002064206CC00503D4206C40F0010020648B
:100880002046FFF7E7FE21686FF00C000860206843
:100890000168426811F0010FC2F380120ED06AB1F4
:1008A0000068C0070AD0206C40F4803020642046E5
:1008B00000F046F821686FF00100086020680168C8
:1008C0004268C1F34011C2F3806200290DD0002AB2
:1008D0000BD0616C41F0020161646FF0200505608E
:1008E0002046FFF764FF2068056070BD70B5040006
:1008F0004FF0000503D0206C002610B107E0012066
:1009000070BD666484F83C60204600F01BF8206CE3
:10091000C00610D4206C20F4885040F002002064FF
:100920002046FFF703FE6664206C20F0020040F0D2
:100930000100206400E0012584F83C60284670BD79
:100940007047000000B50068104987B088421AD18E
:100950000F480021026842F480720260006800F4CF
:1009600080700590012000900320CDE901016946C7
:10097000084800F011F800221146122000F074F926
:10098000122000F065F907B000BD00000020014012
:1009900044380240000002402DE9F84FDFF874B1FE
:1009A00000224FF001084FF0030A4FF00F090BF13E
:1009B000040E00BF0B6808FA02F42340A3426ED174
:1009C0004D68022D01D0122D0ED1D50800EB850CFB
:1009D000DCF820505607F70E09FA07F6B5430E6902
:1009E000BE402E43CCF82060066855000F790AFA05
:1009F00005FC07F0030726EA0C06AF403743076003
:100A00004E68012E05D0022E03D0112E01D0122ED9
:100A10000ED18668CF6826EA0C06AF403743876060
:100A20004668A6430C79C4F30014944034434460F0
:100A3000C4688E6824EA0C04AE402643C6604C6845
:100A4000E40060D5344C256845F480452560246871
:100A500022F0030504F480440094304C2E19D6F89B
:100A6000084895072F0F09FA07F5AC432C4DA8420B
:100A700001D100251FE02B4DA84201D101251AE02C
:100A8000294DA84201D1022515E0284DA84201D1E7
:100A9000032510E0264DA84202D104250BE032E0E8
:100AA000244DA84201D1052505E0234DA84201D1DE
:100AB000062500E00725BD402543C6F80858DBF8A9
:100AC00000405D464E689C43F60300D51C432C60F5
:100AD000DEF8004075464E689C43B60300D51C43C3
:100AE0002C600C4D08352C684E689C43F60200D5EE
:100AF0001C432C60074D0C352C684E689C43B60295
:100B000000D51C432C60521C102AFFF453AFBDE8E3
:100B1000F88F0000003C01404438024000300140A2
:100B2000000002400004024000080240000C0240A5
:100B30000010024000140240001802400148806882
:100B400070470000240000200248816802781144A8
:100B500081607047240000200B4810B5016841F403
:100B600000710160016841F480610160016841F435
:100B700080710160032000F097F8002000F006F873
:100B800000F024F8002010BD003C024070B50D4D6F
:100B900004464FF47A712878B1FBF0F00A490968ED
:100BA000B1FBF0F000F02BFB48B9102C07D200226B
:100BB0002146501E00F058F800206C6070BD0120E6
:100BC00070BD000024000020300000201F4808B540
:100BD000016841F480410160006800F480400090A9
:100BE0001A48001F016841F080510160006800F060
:100BF00080500090032000F057F8002211466FF05B
:100C00000B0000F031F8002211466FF00A0000F0EE
:100C10002BF8002211466FF0090000F025F80022A1
:100C20001146501F00F020F800221146101F00F05E
:100C30001BF800221146901E00F016F80022BDE8B5
:100C400008401146501E00F00FB800004438024022
:100C500000F01F02012191404009800000F1E020D6
:100C6000C0F8001170470000F0B40E4B1B680C4632
:100C7000C3F30223C3F10705042D00D90425191D70
:100C8000072901D2002300E0DB1E012606FA05F148
:100C9000491E214099409E40761E16403143F0BCCB
:100CA00000F00CBE0CED00E0064900F007020868F9
:100CB0004FF6FF03184040EA0220034A1043086041
:100CC000704700000CED00E00000FA052DE9F04748
:100CD0000E46050065D0DFF81481D8F80000F7B2A1
:100CE00000F00F00B04207D288F80070D8F800007A
:100CF00000F00F00B04254D128683D4C810712D556
:100D0000400703D5206840F4E050206028780007B1
:100D100003D5206840F4604020602068A96820F076
:100D2000F000084320602878C0072DD0304968685B
:100D30000839012812D0022813D0032811D00968DD
:100D4000890700292DDA216821F003010143216080
:100D5000FFF7F4FE814641F2883A0EE00968890304
:100D6000EFE709688901ECE7FFF7E8FEA0EB09016E
:100D7000514502D90320BDE8F0872068696800F07A
:100D80000C00B0EB810FEFD1D8F80010404601F015
:100D90000F01B14207D90770006800F00F00B042A0
:100DA00001D00120E7E72878400705D52068E968E9
:100DB00020F4E050084320602878000706D520681A
:100DC000296920F4604040EAC100206000F01CF86E
:100DD0002168084AC1F30311515CC8400649086004
:100DE0000020FFF7D3FE0020C5E70000003C0240D2
:100DF00008380240901D00083000002001480068BB
:100E00007047000030000020224810B5006810F044
:100E10000C02214815D02149042A11D01D4C241F51
:100E2000082A0FD00C2A0CD12268236802F03F0256
:100E30005B0221D52068C0F38810A0FB010120E0EF
:100E4000084610BD2268236802F03F025B0205D508
:100E50002068C0F38810A0FB010104E02168C1F301
:100E60008811A1FB00010023FFF7C8F92168C1F335
:100E70000141491C49000AE02168C1F38811A1FB26
:100E800000010023FFF7BAF92168C1F30271B0FB3A
:100E9000F1F010BD083802400024F40040787D01D4
:100EA0002DE9F84F0546DFF828B30078ABF10407C9
:100EB000C007A7F1040451D0DBF800105846C1F375
:100EC000810101290FD00168C1F38101022902D1FA
:100ED0003968490207D40068C0F38100032809D1AA
:100EE0003868400206D52068800337D56868002836
:100EF00072D033E06868B0F5803F10D0B0F5A02F15
:100F0000206810D020F480302060206820F48020F9
:100F100020606868A8B1FFF711FE06460DE0206862
:100F200040F48030F4E740F480202060F7E700BF11
:100F3000FFF704FE801B642878D820688003F7D56B
:100F40000CE0FFF7FBFD064605E000BFFFF7F6FDEE
:100F5000801B6428F0D820688003F7D42878DFF855
:100F6000749280074FF0000A46D5DBF8001058460F
:100F700011F00C0F0FD00168C1F38101022902D1D9
:100F80003968490207D50068C0F38100032809D1F8
:100F90003868400206D42068800715D5E868012823
:100FA0001AD111E0E868C0B10120C9F80000FFF7CC
:100FB000C5FD064605E000BFFFF7C0FD801B022807
:100FC000BAD820688007F7D52068296920F0F80092
:100FD00040EAC10020600FE0F7E0C9F800A0FFF789
:100FE000ADFD064605E000BFFFF7A8FD801B022807
:100FF0001CD820688007F7D42878000727D5DFF8A9
:10100000D0817548696908F16C0881B101210160DE
:10101000FFF794FD064604E0FFF790FD801B0228D1
:1010200004D8D8F800008007F6D510E089E0C0F8B1
:1010300000A0FFF783FD064605E000BFFFF77EFD39
:10104000801B02287DD8D8F800008007F6D42878C5
:10105000400769D55E484FF0000838300068C0008E
:101060000BD45B483830016841F080510160006862
:101070004FF0010800F080500090584E3068C005D5
:1010800011D4306840F480703060FFF757FD009055
:1010900006E000BFFFF752FD0099401A022850D821
:1010A0003068C005F6D54A4EA868683601280FD0CA
:1010B0000528306810D020F001003060306820F042
:1010C00004003060A868B8B1FFF738FD00900FE069
:1010D000306840F00100F4E740F004003060F7E7CA
:1010E000FFF72CFD0099411A41F28830814264D803
:1010F00030688007F4D50EE0FFF720FD009007E090
:10110000FFF71CFD0099411A41F28830814254D802
:1011100030688007F4D4B8F1000F05D02C4838307F
:10112000016821F080510160A869A8B3DBF80010C4
:10113000C1F38101022948D00228C9F860A005D076
:1011400000E03AE0FFF7FAFC054639E0FFF7F6FC6D
:10115000064604E0FFF7F2FC801B02282DD8206829
:101160008001F7D4F5E907010843E9681C4A4908FA
:1011700002EB0141AA6841EA82110843297C40EA56
:101180000160297D40EA017038600120C9F86000E3
:10119000FFF7D4FC054606E015E000BFFFF7CEFCE4
:1011A000401B022809D820688001F7D50BE000BF5A
:1011B000FFF7C4FC401B022802D90320BDE8F88FCA
:1011C00020688001F4D40020F8E70120F6E7000051
:1011D0000838024000004742800E4742007000403D
:1011E0000000FFFF4FF0E0210428086903D020F041
:1011F00004000861704740F00400FAE7704710B53A
:10120000401EB0F1807F01D3012010BD4FF0E024DB
:1012100060610F21601700F051FB0020A0610720E2
:101220002061002010BD10B5FFF7E8FF10BD70472A
:10123000704730B590F83820012A20D0012280F87C
:101240003820022380F8393003685C6824F0700489
:101250005C6003685C680D682C435C6003689C6894
:1012600024F080049C6003689C6849680C439C607F
:1012700080F83920002180F83810084630BD02205F
:1012800030BD10B5040003D094F8390010B107E068
:10129000012010BD002084F83800204600F00CF832
:1012A000022084F83900211D206800F0A9FB0120EC
:1012B00084F83900002010BD00B500681E4987B0D1
:1012C000884236D11D480021026842F001020260C6
:1012D000006800F0010005904FF47060009002205B
:1012E000CDE901010120CDE9031069461448FFF75B
:1012F00053FB002211461820FFF7B6FC1820FFF719
:10130000A7FC002211461920FFF7AEFC1920FFF7B9
:101310009FFC002211461A20FFF7A6FC1A20FFF7B7
:1013200097FC002211461B20FFF79EFC1B20FFF7B5
:101330008FFC07B000BD00000000014044380240AF
:101340000000024070B5044690F83800012817D01C
:10135000012584F83850022084F83900206882681A
:1013600022F0770222F47F4282600868502837D04A
:101370000DDC202859D005DC88B3102841D151E07C
:10138000022070BD302853D040283AD13FE0602879
:101390002ED070280BD0B0F5805F03D0B0F5005F81
:1013A0002FD110E02068816821F0070115E0CB689B
:1013B000D1E90121206800F08EFB2168886840F0A7
:1013C000770088601DE0CB68D1E90121206800F03A
:1013D00082FB2068816841F48041816011E01EE059
:1013E000CA684968206800F088FB5021206806E040
:1013F000CA684968206800F0D3FB6021206800F0CB
:1014000074FB84F83950002084F8380070BDCA6835
:101410004968206800F071FB40212068EFE7002157
:101420002068ECE710212068E9E720212068E6E742
:1014300030212068E3E770472DE9F041044690F839
:1014400038000D4601283DD0012684F8386002207E
:1014500084F83900AAB3042A46D02068082A55D057
:10146000D5E90027E968036A23F480530362D0F8C2
:101470001CC0036A2CF4407C4CEA07274FF6FF7C23
:1014800027F470470CEA013139434FF4204723F425
:10149000204307EA02321A43C16102622068C1692F
:1014A00021F44061C1612068C169AA6841EA022152
:1014B000C0F81C1084F83960002084F83800BDE8BA
:1014C000F08101E00220FAE7D5E90012EB6820681C
:1014D00000F024FB2068816921F00C018161206803
:1014E0008169AA6811430FE0D5E90012EB68206812
:1014F00000F068FB2068816921F440618161206807
:101500008169AA6841EA02218161D3E7D5E9002C0B
:101510002F7B016A21F480710162C169036A21F0A5
:10152000030141EA0C0121F0F00C39074FF4206768
:101530004CEA116123F4206307EA02221A43C161D5
:1015400002622068C16921F00C01C1612068C16993
:10155000AA681143ACE710B5040003D094F8390031
:1015600010B107E0012010BD002084F838002046AB
:1015700000F00CF8022084F83900211D206800F0EA
:101580003FFA012084F83900002010BD704710B5E3
:101590000268044631B1042908D0082915D00C2965
:1015A00008D116E0D06840F0020002E0D06840F0B8
:1015B0000400D0600122206800F082FA20680168EF
:1015C00041F001010160002010BDD06840F008002A
:1015D000EFE7D06840F01000EBE770B50446006814
:1015E00001694FF00005C943890715D4C168C94393
:1015F000890711D4E91E01610120207620688069E5
:101600008007204602D0FFF716FF04E000F098F8AC
:10161000204600F096F8257620680169C9434907FD
:1016200017D4C168C943490713D46FF0040101619D
:10163000022020762068806910F4407F204602D086
:10164000FFF7F9FE04E000F07BF8204600F079F89F
:10165000257620680169C943090716D4C168C943C2
:10166000090712D46FF00801016104202076206878
:10167000C0698007204602D0FFF7DDFE04E000F0DD
:101680005FF8204600F05DF8257620680169C943BF
:10169000C90617D4C168C943C90613D46FF0100135
:1016A0000161082020762068C06910F4407F204640
:1016B00002D0FFF7C0FE04E000F042F8204600F040
:1016C00040F8257620680169C943C90708D1C16877
:1016D000C943C90704D1891E0161204600F032F8D0
:1016E00020680169C943090609D4C168C9430906CC
:1016F00005D46FF0800101612046FFF798FD206856
:101700000169C943490609D4C168C943490605D4DA
:101710006FF040010161204600F015F82068016972
:10172000C94389060BD4C168C943890607D46FF041
:10173000200101612046BDE87040FFF779BD70BD12
:101740007047704770477047FEE700007FB5144848
:1017500012490024C0E900148460046184611149C5
:101760000462C0E90A140125C460C56145610463CF
:10177000FFF7BCF818B148210BA000F03FFACDE903
:101780000045694606480294FEF766FF002803D02C
:10179000522105A000F032FA7FBD00000020014078
:1017A000340000200100000F2E2E2F5372632F6192
:1017B00064632E6300000000054808B5016841F02D
:1017C00001010160006800F00100009008BD000008
:1017D0003038024010B533488AB031490024C0E99E
:1017E00000144FF6FF71C0E9024104614461FFF744
:1017F00048FD18B142212CA000F000FA4FF48050AF
:10180000049004A92748FFF79DFD18B1482126A0A0
:1018100000F0F4F92348FFF79EFE18B14D2122A0F5
:1018200000F0ECF9089408A91E480994FFF701FD9F
:1018300018B154211CA000F0E1F90120CDE90040CD
:101840000F20CDE90240002269461648FFF7F4FD5B
:1018500018B15D2114A000F0D1F9042269461148A5
:101860000394FFF7E9FD18B163210FA000F0C6F95A
:10187000082269460B48FFF7DFFD18B168210AA06E
:1018800000F0BCF90C2269460648FFF7D5FD002898
:1018900003D06D2104A000F0B1F90AB010BD000022
:1018A000000001407C0000202E2E2F5372632F7405
:1018B000696D2E6300000000FEE770470907090EFE
:1018C000002806DA00F00F0000F1E02080F8141D77
:1018D000704700F1E02080F80014704770477047AF
:1018E00010B5FFF731F9BDE81040FFF79CBC0000D0
:1018F00010B5204894B00024016841F08051016087
:10190000006800F0805012901B48016821F44041AB
:1019100041F4804101600068069400F44040129058
:101920000220009001200390102004906846FFF7E9
:10193000B7FA00B1FEE70F20CDE90D040F94109423
:1019400000210DA81194FFF7C1F900B1FEE7FFF7E0
:1019500055FA4FF47A71B0FBF1F0FFF750FC042018
:10196000FFF740FC00221146501EFFF77DF914B02E
:1019700010BD00004038024000700040104801686F
:1019800041F4700101600F48016841F001010160FC
:101990000C4A00210832116002680B4B1A400260A9
:1019A000031D0A4A1A60026822F480220260054878
:1019B0000C30016002495806803908607047000009
:1019C00088ED00E000380240FFFFF6FE10300024F2
:1019D0000148FFF702BE00007C0000200148FFF72D
:1019E000FCBD00007C0000200148FFF7F6BD0000B0
:1019F0007C0000200148FFF7F0BD00007C000020C3
:101A0000F0B50268234B244D244E254F254C4FF052
:101A1000804C984209D0604507D0A84205D0B0421A
:101A200003D0B84201D0A04204D122F0700E4A681F
:101A300042EA0E0298421BD0604519D0A84217D046
:101A4000B04215D0B84213D0A04211D0164DA842D2
:101A50000ED0164DA8420BD0154DA84208D0154DFA
:101A6000A84205D0144DA84202D0144DA84203D17B
:101A700022F44075CA682A4302608A68C2620A6812
:101A80008262984201D0A04201D10969016301211B
:101A90004161F0BD0000014000040040000800402A
:101AA000000C00400004014000400140004401409F
:101AB0000048014000180040001C00400020004089
:101AC00010B50123046A8B409C430462036A8A4078
:101AD0001343036210BD10B5846842EA032224F464
:101AE0007F440A432243826010BD826822F0700264
:101AF0000A4342F007018160704710B5036A046A27
:101B000024F001040462846924F0F00444EA02141D
:101B100023F00A020A438461026210BD70B5046AB0
:101B200024F0010404628469056A164EB04214D0A0
:101B3000B0F1804F11D0144EB0420ED0134EB042CF
:101B40000BD0134EB04208D0124EB04205D0124E08
:101B5000B04202D0114EB04203D124F0030414432A
:101B600003E024F0030242F001041A0724F0F00419
:101B700044EA126225F00A0301F00A011943826166
:101B8000016270BD000001400004004000080040F8
:101B9000000C0040000401400040014000180040DB
:101BA00010B5036A23F0100303628369046A23F407
:101BB000704343EA023224F0A00343EA0111826138
:101BC000016210BD30B5046A24F010040462846917
:101BD000056A24F4407444EA022222F470444FF669
:101BE000FF7202EA03322243A02425F0A00304EA94
:101BF000011119438261016230BDFEE7FEE702E098
:101C000008C8121F08C1002AFAD170477047002087
:101C100001E001C1121F002AFBD170472DED068B98
:101C2000FEF79AFF00215348FFF7B1FC0421514809
:101C3000FFF7ADFC08214F48FFF7A9FC0C214D48E8
:101C4000FFF7A5FCFFF754FEFFF7B6FDFFF7C2FD57
:101C5000FFF77CFD474E484F00254FF03C089FEDB5
:101C6000478B9FED489B494CB5EE00AA2088012880
:101C700018D13068406B2189401A80B22081B0FBB6
:101C8000F7F08100B8FBF1F0FEF75BFB53EC182B8B
:101C9000FEF7E5FA53EC192BFEF7E1FAFEF75EFBCF
:101CA000206125806088012818D13068806B6189A7
:101CB000401A80B26081B0FBF7F08100B8FBF1F010
:101CC000FEF73FFB53EC182BFEF7C9FA53EC192B28
:101CD000FEF7C5FAFEF742FB60616580A088012827
:101CE00018D13068C06BA189401A80B2A081B0FBC6
:101CF000F7F08100B8FBF1F0FEF723FB53EC182B53
:101D0000FEF7ADFA53EC192BFEF7A9FAFEF726FB06
:101D1000A061A580E088012818D13068006CE189B5
:101D2000401A80B2E081B0FBF7F08100B8FBF1F01F
:101D3000FEF707FB53EC182BFEF791FA53EC192B27
:101D4000FEF78DFAFEF70AFBE061E58094ED040AE8
:101D5000D4ED050A30EE200AD4ED060A30EE200A52
:101D6000D4ED070A30EE200A20EE0A0A84ED080AB4
:101D70007CE700007C0000200024F40087F1AD2205
:101D8000B6CEBA3F000000000000E03F0000002097
:101D9000000000000000000001020304060708091B
:101DA000C01D00080000002034000000FE1B0008D9
:101DB000F41D000834000020840400000E1C0008FC
:101DC0000000000000000000000000000000000013
:101DD0000000000000000000000000000000000003
:101DE00000000000010000001000000000000000E2
:041DF0000024F400D7
:04000005080001C529
:00000001FF
